:100000000C9434000C9451000C9451000C94510049
:100010000C9451000C9451000C9451000C9451001C
:100020000C9451000C9451000C9451000C9451000C
:100030000C9451000C9451000C9451000C945100FC
:100040000C9451000C9451000C9453000C945100EA
:100050000C9451000C9451000C9451000C945100DC
:100060000C9451000C94510011241FBECFEFD8E026
:10007000DEBFCDBF11E0A0E0B1E0EAE3F3E002C0F3
:1000800005900D92A831B107D9F721E0A8E1B1E0C0
:1000900001C01D92A932B207E1F70E94A2000C94A0
:1000A0009B010C9400001F920F920FB60F92112427
:1000B0008F938091C6008093240181E08093190181
:1000C0008F910F900FBE0F901F901895389A4098FF
:1000D0002FEF89EF90E0215080409040E1F700C081
:1000E0000000409A089538983099FECF309BFECF9B
:1000F0003099FECF089588E090E0309BFECF2FEF3F
:1001000036E741E0215030404040E1F700C00000B8
:10011000309B07C020911801220F21602093180105
:1001200005C020911801220F209318013099FECFAD
:10013000019719F78091180190E00E945601809173
:1001400018010895CF93DF9300D000D01F92CDB750
:10015000DEB70E943B01789480E091E00E94560156
:100160000E9466000E9473000E947B00809327011A
:100170000E947B00809324010E947B0080932601D3
:100180000E947B00809328010E947B0080932501C0
:10019000E0912701F0E090912401AF01490F511D3A
:1001A00090912601490F511D282F30E04217530727
:1001B00029F08BE091E00E94560153C04AE0BE0155
:1001C0006F5F7F4FCF010E946601CE0101960E94B2
:1001D000560181E191E00E945601809124014AE09C
:1001E000BE016F5F7F4F90E00E946601CE010196D5
:1001F0000E94560183E191E00E9456018091260100
:100200004AE0BE016F5F7F4F90E00E946601CE0121
:1002100001960E94560181E191E00E945601809171
:1002200028014AE0BE016F5F7F4F90E00E946601A7
:10023000CE0101960E94560185E191E00E9456018F
:10024000809125014AE0BE016F5F7F4F90E00E94E0
:100250006601CE0101960E94560186E191E00E945E
:1002600056012FEF89E698E1215080409040E1F758
:1002700000C0000071CF1092C50087E68093C400D3
:10028000E2ECF0E0808186608083E1ECF0E0808148
:10029000886180838081806880830895E0ECF0E04D
:1002A000908195FFFDCF8093C6000895CF93DF9393
:1002B000EC018881882339F0219690E00E944E015C
:1002C00089918111FACFDF91CF910895BB274A30F0
:1002D00031F4992322F4BDE2909581959F4F0C94BF
:1002E0007201BB27FB015527AA27880F991FAA1F58
:1002F000A41710F0A41B83955051B9F7A05DAA3341
:1003000008F0A95DA193009779F7B111B19311920B
:10031000CB010C948B01DC01FC01672F71917723D9
:10032000E1F7329704C07C916D9370836291AE17B0
:0A033000BF07C8F30895F894FFCF4B
:10033A0048756D6964697479203D004572726F72FF
:08034A00002E002500432000F5
:00000001FF
